{
  "contractName": "Token",
  "abi": [
    {
      "inputs": [
        {
          "internalType": "uint256",
          "name": "_startTime",
          "type": "uint256"
        },
        {
          "internalType": "uint256",
          "name": "_endTime",
          "type": "uint256"
        }
      ],
      "stateMutability": "nonpayable",
      "type": "constructor"
    },
    {
      "anonymous": false,
      "inputs": [
        {
          "indexed": true,
          "internalType": "address",
          "name": "owner",
          "type": "address"
        },
        {
          "indexed": true,
          "internalType": "address",
          "name": "spender",
          "type": "address"
        },
        {
          "indexed": false,
          "internalType": "uint256",
          "name": "value",
          "type": "uint256"
        }
      ],
      "name": "Approval",
      "type": "event"
    },
    {
      "anonymous": false,
      "inputs": [
        {
          "indexed": true,
          "internalType": "bytes32",
          "name": "role",
          "type": "bytes32"
        },
        {
          "indexed": true,
          "internalType": "address",
          "name": "account",
          "type": "address"
        },
        {
          "indexed": true,
          "internalType": "address",
          "name": "sender",
          "type": "address"
        }
      ],
      "name": "RoleGranted",
      "type": "event"
    },
    {
      "anonymous": false,
      "inputs": [
        {
          "indexed": true,
          "internalType": "bytes32",
          "name": "role",
          "type": "bytes32"
        },
        {
          "indexed": true,
          "internalType": "address",
          "name": "account",
          "type": "address"
        },
        {
          "indexed": true,
          "internalType": "address",
          "name": "sender",
          "type": "address"
        }
      ],
      "name": "RoleRevoked",
      "type": "event"
    },
    {
      "anonymous": false,
      "inputs": [
        {
          "indexed": true,
          "internalType": "address",
          "name": "from",
          "type": "address"
        },
        {
          "indexed": true,
          "internalType": "address",
          "name": "to",
          "type": "address"
        },
        {
          "indexed": false,
          "internalType": "uint256",
          "name": "value",
          "type": "uint256"
        }
      ],
      "name": "Transfer",
      "type": "event"
    },
    {
      "inputs": [],
      "name": "DEFAULT_ADMIN_ROLE",
      "outputs": [
        {
          "internalType": "bytes32",
          "name": "",
          "type": "bytes32"
        }
      ],
      "stateMutability": "view",
      "type": "function"
    },
    {
      "inputs": [],
      "name": "MINTER_ROLE",
      "outputs": [
        {
          "internalType": "bytes32",
          "name": "",
          "type": "bytes32"
        }
      ],
      "stateMutability": "view",
      "type": "function"
    },
    {
      "inputs": [
        {
          "internalType": "address",
          "name": "owner",
          "type": "address"
        },
        {
          "internalType": "address",
          "name": "spender",
          "type": "address"
        }
      ],
      "name": "allowance",
      "outputs": [
        {
          "internalType": "uint256",
          "name": "",
          "type": "uint256"
        }
      ],
      "stateMutability": "view",
      "type": "function"
    },
    {
      "inputs": [
        {
          "internalType": "address",
          "name": "spender",
          "type": "address"
        },
        {
          "internalType": "uint256",
          "name": "amount",
          "type": "uint256"
        }
      ],
      "name": "approve",
      "outputs": [
        {
          "internalType": "bool",
          "name": "",
          "type": "bool"
        }
      ],
      "stateMutability": "nonpayable",
      "type": "function"
    },
    {
      "inputs": [
        {
          "internalType": "address",
          "name": "account",
          "type": "address"
        }
      ],
      "name": "balanceOf",
      "outputs": [
        {
          "internalType": "uint256",
          "name": "",
          "type": "uint256"
        }
      ],
      "stateMutability": "view",
      "type": "function"
    },
    {
      "inputs": [],
      "name": "decimals",
      "outputs": [
        {
          "internalType": "uint8",
          "name": "",
          "type": "uint8"
        }
      ],
      "stateMutability": "view",
      "type": "function"
    },
    {
      "inputs": [
        {
          "internalType": "address",
          "name": "spender",
          "type": "address"
        },
        {
          "internalType": "uint256",
          "name": "subtractedValue",
          "type": "uint256"
        }
      ],
      "name": "decreaseAllowance",
      "outputs": [
        {
          "internalType": "bool",
          "name": "",
          "type": "bool"
        }
      ],
      "stateMutability": "nonpayable",
      "type": "function"
    },
    {
      "inputs": [
        {
          "internalType": "bytes32",
          "name": "role",
          "type": "bytes32"
        }
      ],
      "name": "getRoleAdmin",
      "outputs": [
        {
          "internalType": "bytes32",
          "name": "",
          "type": "bytes32"
        }
      ],
      "stateMutability": "view",
      "type": "function"
    },
    {
      "inputs": [
        {
          "internalType": "bytes32",
          "name": "role",
          "type": "bytes32"
        },
        {
          "internalType": "uint256",
          "name": "index",
          "type": "uint256"
        }
      ],
      "name": "getRoleMember",
      "outputs": [
        {
          "internalType": "address",
          "name": "",
          "type": "address"
        }
      ],
      "stateMutability": "view",
      "type": "function"
    },
    {
      "inputs": [
        {
          "internalType": "bytes32",
          "name": "role",
          "type": "bytes32"
        }
      ],
      "name": "getRoleMemberCount",
      "outputs": [
        {
          "internalType": "uint256",
          "name": "",
          "type": "uint256"
        }
      ],
      "stateMutability": "view",
      "type": "function"
    },
    {
      "inputs": [
        {
          "internalType": "bytes32",
          "name": "role",
          "type": "bytes32"
        },
        {
          "internalType": "address",
          "name": "account",
          "type": "address"
        }
      ],
      "name": "grantRole",
      "outputs": [],
      "stateMutability": "nonpayable",
      "type": "function"
    },
    {
      "inputs": [
        {
          "internalType": "bytes32",
          "name": "role",
          "type": "bytes32"
        },
        {
          "internalType": "address",
          "name": "account",
          "type": "address"
        }
      ],
      "name": "hasRole",
      "outputs": [
        {
          "internalType": "bool",
          "name": "",
          "type": "bool"
        }
      ],
      "stateMutability": "view",
      "type": "function"
    },
    {
      "inputs": [
        {
          "internalType": "address",
          "name": "spender",
          "type": "address"
        },
        {
          "internalType": "uint256",
          "name": "addedValue",
          "type": "uint256"
        }
      ],
      "name": "increaseAllowance",
      "outputs": [
        {
          "internalType": "bool",
          "name": "",
          "type": "bool"
        }
      ],
      "stateMutability": "nonpayable",
      "type": "function"
    },
    {
      "inputs": [],
      "name": "name",
      "outputs": [
        {
          "internalType": "string",
          "name": "",
          "type": "string"
        }
      ],
      "stateMutability": "view",
      "type": "function"
    },
    {
      "inputs": [
        {
          "internalType": "bytes32",
          "name": "role",
          "type": "bytes32"
        },
        {
          "internalType": "address",
          "name": "account",
          "type": "address"
        }
      ],
      "name": "renounceRole",
      "outputs": [],
      "stateMutability": "nonpayable",
      "type": "function"
    },
    {
      "inputs": [
        {
          "internalType": "bytes32",
          "name": "role",
          "type": "bytes32"
        },
        {
          "internalType": "address",
          "name": "account",
          "type": "address"
        }
      ],
      "name": "revokeRole",
      "outputs": [],
      "stateMutability": "nonpayable",
      "type": "function"
    },
    {
      "inputs": [],
      "name": "symbol",
      "outputs": [
        {
          "internalType": "string",
          "name": "",
          "type": "string"
        }
      ],
      "stateMutability": "view",
      "type": "function"
    },
    {
      "inputs": [],
      "name": "totalSupply",
      "outputs": [
        {
          "internalType": "uint256",
          "name": "",
          "type": "uint256"
        }
      ],
      "stateMutability": "view",
      "type": "function"
    },
    {
      "inputs": [
        {
          "internalType": "address",
          "name": "recipient",
          "type": "address"
        },
        {
          "internalType": "uint256",
          "name": "amount",
          "type": "uint256"
        }
      ],
      "name": "transfer",
      "outputs": [
        {
          "internalType": "bool",
          "name": "",
          "type": "bool"
        }
      ],
      "stateMutability": "nonpayable",
      "type": "function"
    },
    {
      "inputs": [
        {
          "internalType": "address",
          "name": "sender",
          "type": "address"
        },
        {
          "internalType": "address",
          "name": "recipient",
          "type": "address"
        },
        {
          "internalType": "uint256",
          "name": "amount",
          "type": "uint256"
        }
      ],
      "name": "transferFrom",
      "outputs": [
        {
          "internalType": "bool",
          "name": "",
          "type": "bool"
        }
      ],
      "stateMutability": "nonpayable",
      "type": "function"
    },
    {
      "inputs": [
        {
          "internalType": "address",
          "name": "to",
          "type": "address"
        },
        {
          "internalType": "uint256",
          "name": "amount",
          "type": "uint256"
        }
      ],
      "name": "mint",
      "outputs": [],
      "stateMutability": "nonpayable",
      "type": "function"
    },
    {
      "inputs": [],
      "name": "isWindowOpen",
      "outputs": [
        {
          "internalType": "bool",
          "name": "",
          "type": "bool"
        }
      ],
      "stateMutability": "view",
      "type": "function"
    }
  ],
  "bytecode": "0x60806040523480156200001157600080fd5b506040516200173b3803806200173b833981810160405260408110156200003757600080fd5b50805160209182015160408051808201825260058152642a27a5a2a760d91b81860190815282518084019093526003808452622a25a760e91b9684019690965281519495939491936200008d92909190620002f7565b508051620000a3906004906020840190620002f7565b50506005805460ff1916601217905550604080516a4d494e5445525f524f4c4560a81b8152905190819003600b019020620000e890336001600160e01b03620001bc16565b428211620001285760405162461bcd60e51b8152600401808060200182810382526038815260200180620016a36038913960400191505060405180910390fd5b818111620001685760405162461bcd60e51b815260040180806020018281038252602c815260200180620016db602c913960400191505060405180910390fd5b8162015180018111620001ad5760405162461bcd60e51b8152600401808060200182810382526034815260200180620017076034913960400191505060405180910390fd5b60079190915560085562000399565b620001d182826001600160e01b03620001d516565b5050565b6000828152600660209081526040909120620001fc91839062000a0662000259821b17901c565b15620001d157620002156001600160e01b036200028216565b6001600160a01b0316816001600160a01b0316837f2f8788117e7eff1d82e926ec794901d17c78024a50270940304540a733656f0d60405160405180910390a45050565b600062000279836001600160a01b0384166001600160e01b036200028716565b90505b92915050565b335b90565b60006200029e83836001600160e01b03620002df16565b620002d6575081546001818101845560008481526020808220909301849055845484825282860190935260409020919091556200027c565b5060006200027c565b60009081526001919091016020526040902054151590565b828054600181600116156101000203166002900490600052602060002090601f016020900481019282601f106200033a57805160ff19168380011785556200036a565b828001600101855582156200036a579182015b828111156200036a5782518255916020019190600101906200034d565b50620003789291506200037c565b5090565b6200028491905b8082111562000378576000815560010162000383565b6112fa80620003a96000396000f3fe608060405234801561001057600080fd5b50600436106101425760003560e01c80639010d07c116100b8578063a9059cbb1161007c578063a9059cbb1461040e578063ca15c8731461043a578063d12c8e0a14610457578063d53913931461045f578063d547741f14610467578063dd62ed3e1461049357610142565b80639010d07c1461036757806391d14854146103a657806395d89b41146103d2578063a217fddf146103da578063a457c2d7146103e257610142565b80632f2ff15d1161010a5780632f2ff15d14610271578063313ce5671461029f57806336568abe146102bd57806339509351146102e957806340c10f191461031557806370a082311461034157610142565b806306fdde0314610147578063095ea7b3146101c457806318160ddd1461020457806323b872dd1461021e578063248a9ca314610254575b600080fd5b61014f6104c1565b6040805160208082528351818301528351919283929083019185019080838360005b83811015610189578181015183820152602001610171565b50505050905090810190601f1680156101b65780820380516001836020036101000a031916815260200191505b509250505060405180910390f35b6101f0600480360360408110156101da57600080fd5b506001600160a01b038135169060200135610557565b604080519115158252519081900360200190f35b61020c610575565b60408051918252519081900360200190f35b6101f06004803603606081101561023457600080fd5b506001600160a01b0381358116916020810135909116906040013561057b565b61020c6004803603602081101561026a57600080fd5b5035610608565b61029d6004803603604081101561028757600080fd5b50803590602001356001600160a01b031661061d565b005b6102a7610689565b6040805160ff9092168252519081900360200190f35b61029d600480360360408110156102d357600080fd5b50803590602001356001600160a01b0316610692565b6101f0600480360360408110156102ff57600080fd5b506001600160a01b0381351690602001356106f3565b61029d6004803603604081101561032b57600080fd5b506001600160a01b038135169060200135610747565b61020c6004803603602081101561035757600080fd5b50356001600160a01b03166107e8565b61038a6004803603604081101561037d57600080fd5b5080359060200135610803565b604080516001600160a01b039092168252519081900360200190f35b6101f0600480360360408110156103bc57600080fd5b50803590602001356001600160a01b0316610828565b61014f610846565b61020c6108a7565b6101f0600480360360408110156103f857600080fd5b506001600160a01b0381351690602001356108ac565b6101f06004803603604081101561042457600080fd5b506001600160a01b03813516906020013561091a565b61020c6004803603602081101561045057600080fd5b503561092e565b6101f0610945565b61020c61095f565b61029d6004803603604081101561047d57600080fd5b50803590602001356001600160a01b0316610982565b61020c600480360360408110156104a957600080fd5b506001600160a01b03813581169160200135166109db565b60038054604080516020601f600260001961010060018816150201909516949094049384018190048102820181019092528281526060939092909183018282801561054d5780601f106105225761010080835404028352916020019161054d565b820191906000526020600020905b81548152906001019060200180831161053057829003601f168201915b5050505050905090565b600061056b610564610a1b565b8484610a1f565b5060015b92915050565b60025490565b6000610588848484610b0b565b6105fe84610594610a1b565b6105f985604051806060016040528060288152602001611200602891396001600160a01b038a166000908152600160205260408120906105d2610a1b565b6001600160a01b03168152602081019190915260400160002054919063ffffffff610c7216565b610a1f565b5060019392505050565b60009081526006602052604090206002015490565b6000828152600660205260409020600201546106409061063b610a1b565b610828565b61067b5760405162461bcd60e51b815260040180806020018281038252602f815260200180611159602f913960400191505060405180910390fd5b6106858282610d09565b5050565b60055460ff1690565b61069a610a1b565b6001600160a01b0316816001600160a01b0316146106e95760405162461bcd60e51b815260040180806020018281038252602f815260200180611296602f913960400191505060405180910390fd5b6106858282610d78565b600061056b610700610a1b565b846105f98560016000610711610a1b565b6001600160a01b03908116825260208083019390935260409182016000908120918c16815292529020549063ffffffff610de716565b6007544211801561075a57506008544211155b61076357600080fd5b604080516a4d494e5445525f524f4c4560a81b8152905190819003600b01902061078d9033610828565b6107de576040805162461bcd60e51b815260206004820152601c60248201527f43616c6c6572206d7573742068617665206d696e74657220726f6c6500000000604482015290519081900360640190fd5b6106858282610e41565b6001600160a01b031660009081526020819052604090205490565b6000828152600660205260408120610821908363ffffffff610f3d16565b9392505050565b6000828152600660205260408120610821908363ffffffff610f4916565b60048054604080516020601f600260001961010060018816150201909516949094049384018190048102820181019092528281526060939092909183018282801561054d5780601f106105225761010080835404028352916020019161054d565b600081565b600061056b6108b9610a1b565b846105f98560405180606001604052806025815260200161127160259139600160006108e3610a1b565b6001600160a01b03908116825260208083019390935260409182016000908120918d1681529252902054919063ffffffff610c7216565b600061056b610927610a1b565b8484610b0b565b600081815260066020526040812061056f90610f5e565b60006007544211801561095a57506008544211155b905090565b604080516a4d494e5445525f524f4c4560a81b8152905190819003600b01902081565b6000828152600660205260409020600201546109a09061063b610a1b565b6106e95760405162461bcd60e51b81526004018080602001828103825260308152602001806111d06030913960400191505060405180910390fd5b6001600160a01b03918216600090815260016020908152604080832093909416825291909152205490565b6000610821836001600160a01b038416610f69565b3390565b6001600160a01b038316610a645760405162461bcd60e51b815260040180806020018281038252602481526020018061124d6024913960400191505060405180910390fd5b6001600160a01b038216610aa95760405162461bcd60e51b81526004018080602001828103825260228152602001806111886022913960400191505060405180910390fd5b6001600160a01b03808416600081815260016020908152604080832094871680845294825291829020859055815185815291517f8c5be1e5ebec7d5bd14f71427d1e84f3dd0314c0f7b2291e5b200ac8c7c3b9259281900390910190a3505050565b6001600160a01b038316610b505760405162461bcd60e51b81526004018080602001828103825260258152602001806112286025913960400191505060405180910390fd5b6001600160a01b038216610b955760405162461bcd60e51b81526004018080602001828103825260238152602001806111366023913960400191505060405180910390fd5b610ba0838383610fb3565b610be3816040518060600160405280602681526020016111aa602691396001600160a01b038616600090815260208190526040902054919063ffffffff610c7216565b6001600160a01b038085166000908152602081905260408082209390935590841681522054610c18908263ffffffff610de716565b6001600160a01b038084166000818152602081815260409182902094909455805185815290519193928716927fddf252ad1be2c89b69c2b068fc378daa952ba7f163c4a11628f55a4df523b3ef92918290030190a3505050565b60008184841115610d015760405162461bcd60e51b81526004018080602001828103825283818151815260200191508051906020019080838360005b83811015610cc6578181015183820152602001610cae565b50505050905090810190601f168015610cf35780820380516001836020036101000a031916815260200191505b509250505060405180910390fd5b505050900390565b6000828152600660205260409020610d27908263ffffffff610a0616565b1561068557610d34610a1b565b6001600160a01b0316816001600160a01b0316837f2f8788117e7eff1d82e926ec794901d17c78024a50270940304540a733656f0d60405160405180910390a45050565b6000828152600660205260409020610d96908263ffffffff610fb816565b1561068557610da3610a1b565b6001600160a01b0316816001600160a01b0316837ff6391f5c32d9c69d2a47ea670b442974b53935d1edc7fd64eb21e047a839171b60405160405180910390a45050565b600082820183811015610821576040805162461bcd60e51b815260206004820152601b60248201527f536166654d6174683a206164646974696f6e206f766572666c6f770000000000604482015290519081900360640190fd5b6001600160a01b038216610e9c576040805162461bcd60e51b815260206004820152601f60248201527f45524332303a206d696e7420746f20746865207a65726f206164647265737300604482015290519081900360640190fd5b610ea860008383610fb3565b600254610ebb908263ffffffff610de716565b6002556001600160a01b038216600090815260208190526040902054610ee7908263ffffffff610de716565b6001600160a01b0383166000818152602081815260408083209490945583518581529351929391927fddf252ad1be2c89b69c2b068fc378daa952ba7f163c4a11628f55a4df523b3ef9281900390910190a35050565b60006108218383610fcd565b6000610821836001600160a01b038416611031565b600061056f82611049565b6000610f758383611031565b610fab5750815460018181018455600084815260208082209093018490558454848252828601909352604090209190915561056f565b50600061056f565b505050565b6000610821836001600160a01b03841661104d565b8154600090821061100f5760405162461bcd60e51b81526004018080602001828103825260228152602001806111146022913960400191505060405180910390fd5b82600001828154811061101e57fe5b9060005260206000200154905092915050565b60009081526001919091016020526040902054151590565b5490565b60008181526001830160205260408120548015611109578354600019808301919081019060009087908390811061108057fe5b906000526020600020015490508087600001848154811061109d57fe5b6000918252602080832090910192909255828152600189810190925260409020908401905586548790806110cd57fe5b6001900381819060005260206000200160009055905586600101600087815260200190815260200160002060009055600194505050505061056f565b600091505061056f56fe456e756d657261626c655365743a20696e646578206f7574206f6620626f756e647345524332303a207472616e7366657220746f20746865207a65726f2061646472657373416363657373436f6e74726f6c3a2073656e646572206d75737420626520616e2061646d696e20746f206772616e7445524332303a20617070726f766520746f20746865207a65726f206164647265737345524332303a207472616e7366657220616d6f756e7420657863656564732062616c616e6365416363657373436f6e74726f6c3a2073656e646572206d75737420626520616e2061646d696e20746f207265766f6b6545524332303a207472616e7366657220616d6f756e74206578636565647320616c6c6f77616e636545524332303a207472616e736665722066726f6d20746865207a65726f206164647265737345524332303a20617070726f76652066726f6d20746865207a65726f206164647265737345524332303a2064656372656173656420616c6c6f77616e63652062656c6f77207a65726f416363657373436f6e74726f6c3a2063616e206f6e6c792072656e6f756e636520726f6c657320666f722073656c66a2646970667358221220fe6a4c96603797e3ea5c18b0edc86f211bc84f4243e28be2da54bd8375ff682664736f6c634300060a0033696e76616c69642073746172742074696d652e205354206d7573742062652067726561746572207468616e2063757272656e742074696d65696e76616c696420656e6454696d652e204554206d7573742062652067726561746572207468616e2053542e696e76616c696420656e6454696d652e204554206d7573742062652067726561746572207468616e205354202b20312064617973",
  "immutableReferences": {},
  "source": "pragma solidity ^0.6.0;\r\n\r\n/// @title A mintable ERC20 token with time constraints\r\n/// @author Frances Juniper Hansen\r\n/// @notice Mintable token with time constraints based on an Auto depecate design pattern.\r\n/// @dev Currently; Time constraints _endTime & _startTime may only be deployed in valid epoch unix format. \r\n\r\nimport \"@openzeppelin/contracts/access/AccessControl.sol\";\r\nimport \"@openzeppelin/contracts/token/ERC20/ERC20.sol\";\r\n\r\ncontract Token is ERC20, AccessControl {\r\n    bytes32 public constant MINTER_ROLE = keccak256(\"MINTER_ROLE\");\r\n    uint256 private startTime;\r\n    uint256 private endTime;\r\n\r\n    modifier whenOpen() {\r\n        require(now > startTime && now <= endTime);\r\n        _;\r\n    }\r\n\r\n    constructor(uint _startTime, uint _endTime) public ERC20(\"TOKEN\",\"TKN\") {\r\n       _setupRole(MINTER_ROLE, msg.sender);\r\n        require(_startTime > now, \"invalid start time. ST must be greater than current time\");\r\n        require(_endTime > _startTime, \"invalid endTime. ET must be greater than ST.\");\r\n        require(_endTime > _startTime + 1 days, \"invalid endTime. ET must be greater than ST + 1 days\");\r\n        startTime = _startTime;\r\n        endTime = _endTime;\r\n    }\r\n\r\n    function mint(address to, uint256 amount) public whenOpen {\r\n        require(hasRole(MINTER_ROLE, msg.sender), \"Caller must have minter role\");\r\n        _mint(to, amount);\r\n    }\r\n\r\n    function isWindowOpen() public view returns(bool) {\r\n        return now > startTime && now <= endTime;\r\n    }\r\n}",
  "sourcePath": "C:\\Users\\F\\dapp\\src\\contracts\\Token.sol",
  "compiler": {
    "name": "solc",
    "version": "0.6.10+commit.00c0fcaf.Emscripten.clang"
  },
  "schemaVersion": "3.2.0",
  "updatedAt": "2020-06-20T21:31:35.974Z",
  "devdoc": {
    "methods": {
      "allowance(address,address)": {
        "details": "See {IERC20-allowance}."
      },
      "approve(address,uint256)": {
        "details": "See {IERC20-approve}. Requirements: - `spender` cannot be the zero address."
      },
      "balanceOf(address)": {
        "details": "See {IERC20-balanceOf}."
      },
      "decimals()": {
        "details": "Returns the number of decimals used to get its user representation. For example, if `decimals` equals `2`, a balance of `505` tokens should be displayed to a user as `5,05` (`505 / 10 ** 2`). Tokens usually opt for a value of 18, imitating the relationship between Ether and Wei. This is the value {ERC20} uses, unless {_setupDecimals} is called. NOTE: This information is only used for _display_ purposes: it in no way affects any of the arithmetic of the contract, including {IERC20-balanceOf} and {IERC20-transfer}."
      },
      "decreaseAllowance(address,uint256)": {
        "details": "Atomically decreases the allowance granted to `spender` by the caller. This is an alternative to {approve} that can be used as a mitigation for problems described in {IERC20-approve}. Emits an {Approval} event indicating the updated allowance. Requirements: - `spender` cannot be the zero address. - `spender` must have allowance for the caller of at least `subtractedValue`."
      },
      "getRoleAdmin(bytes32)": {
        "details": "Returns the admin role that controls `role`. See {grantRole} and {revokeRole}. To change a role's admin, use {_setRoleAdmin}."
      },
      "getRoleMember(bytes32,uint256)": {
        "details": "Returns one of the accounts that have `role`. `index` must be a value between 0 and {getRoleMemberCount}, non-inclusive. Role bearers are not sorted in any particular way, and their ordering may change at any point. WARNING: When using {getRoleMember} and {getRoleMemberCount}, make sure you perform all queries on the same block. See the following https://forum.openzeppelin.com/t/iterating-over-elements-on-enumerableset-in-openzeppelin-contracts/2296[forum post] for more information."
      },
      "getRoleMemberCount(bytes32)": {
        "details": "Returns the number of accounts that have `role`. Can be used together with {getRoleMember} to enumerate all bearers of a role."
      },
      "grantRole(bytes32,address)": {
        "details": "Grants `role` to `account`. If `account` had not been already granted `role`, emits a {RoleGranted} event. Requirements: - the caller must have ``role``'s admin role."
      },
      "hasRole(bytes32,address)": {
        "details": "Returns `true` if `account` has been granted `role`."
      },
      "increaseAllowance(address,uint256)": {
        "details": "Atomically increases the allowance granted to `spender` by the caller. This is an alternative to {approve} that can be used as a mitigation for problems described in {IERC20-approve}. Emits an {Approval} event indicating the updated allowance. Requirements: - `spender` cannot be the zero address."
      },
      "name()": {
        "details": "Returns the name of the token."
      },
      "renounceRole(bytes32,address)": {
        "details": "Revokes `role` from the calling account. Roles are often managed via {grantRole} and {revokeRole}: this function's purpose is to provide a mechanism for accounts to lose their privileges if they are compromised (such as when a trusted device is misplaced). If the calling account had been granted `role`, emits a {RoleRevoked} event. Requirements: - the caller must be `account`."
      },
      "revokeRole(bytes32,address)": {
        "details": "Revokes `role` from `account`. If `account` had been granted `role`, emits a {RoleRevoked} event. Requirements: - the caller must have ``role``'s admin role."
      },
      "symbol()": {
        "details": "Returns the symbol of the token, usually a shorter version of the name."
      },
      "totalSupply()": {
        "details": "See {IERC20-totalSupply}."
      },
      "transfer(address,uint256)": {
        "details": "See {IERC20-transfer}. Requirements: - `recipient` cannot be the zero address. - the caller must have a balance of at least `amount`."
      },
      "transferFrom(address,address,uint256)": {
        "details": "See {IERC20-transferFrom}. Emits an {Approval} event indicating the updated allowance. This is not required by the EIP. See the note at the beginning of {ERC20}; Requirements: - `sender` and `recipient` cannot be the zero address. - `sender` must have a balance of at least `amount`. - the caller must have allowance for ``sender``'s tokens of at least `amount`."
      }
    }
  },
  "userdoc": {
    "methods": {}
  }
}